:020000040000FA
:1000000058290020F902000001030000030300004A
:1000100005030000070300000903000000000000C2
:100020000000000000000000000000000B030000C2
:100030000D030000000000000F030000110300008A
:100040001303000013030000910A000013030000D3
:10005000130300001303000013030000BD0600009B
:10006000410A000013030000130300001303000003
:100070001303000013030000130300001303000028
:100080001303000013030000130300001303000018
:100090001303000013030000130300001303000008
:1000A00013030000130300001303000013030000F8
:1000B0001303000013030000000000000000000014
:1000C00013030000130300001303000013030000D8
:1000D00013030000130300001303000013030000C8
:1000E00013030000130300001303000000000000CE
:1000F00000000000130300000000000013030000D4
:1001000000000000000000000000000000000000EF
:1001100000000000000000000000000000000000DF
:1001200000000000000000000000000000000000CF
:1001300000000000000000000000000000000000BF
:1001400000000000000000000000000000000000AF
:10015000000000000000000000000000000000009F
:10016000000000000000000000000000000000008F
:10017000000000000000000000000000000000007F
:10018000000000000000000000000000000000006F
:10019000000000000000000000000000000000005F
:1001A000000000000000000000000000000000004F
:1001B000000000000000000000000000000000003F
:1001C000000000000000000000000000000000002F
:1001D000000000000000000000000000000000001F
:1001E000000000000000000000000000000000000F
:1001F00000000000000000000000000000000000FF
:10020000DFF80CD000F048FA004800471910000051
:100210005829002030B4044654E8000F0D4644E845
:100220000053002BF8D1156030BC704730B4044641
:1002300054E8000F40EA010544E80053002BF7D1D1
:10024000156030BC704730B4044654E8000F00EA33
:10025000010544E80053002BF7D1156030BC70470E
:1002600030B4044654E8000F80EA010544E8005326
:10027000002BF7D1156030BC704730B4044654E809
:10028000000F00EB010544E80053002BF7D1156087
:1002900030BC704730B4044654E8000FA0EB0105B1
:1002A00044E80053002BF7D1156030BC704770B4A0
:1002B00004464FF0000054E8006F0D68AE4207BFDF
:1002C00044E80023012044E800630E60002B1CBFBB
:1002D0000020F0E770BC704730B4044654E8000FCB
:1002E00088422CBF451A054644E80053002BF5D13F
:1002F000156030BC7047000006488047064800473C
:10030000FEE7FEE7FEE7FEE7FEE7FEE7FEE7FEE7C5
:10031000FEE7FEE765080000010200002DE9F05F3E
:100320000546002092469B46884606468146402464
:100330001BE0284641464746224600F020F8534637
:100340005A46C01A914110D311461846224600F071
:1003500000F92D1A67EB01084F46224601200021C3
:1003600000F0F7F817EB00094E41201EA4F101043C
:10037000DFDC484631462A464346BDE8F09F202A46
:1003800004DB203A21FA02F00021704721FA02F33F
:10039000D040C2F120029140084319467047000046
:1003A00000487047A826000040EA01039B0703D0DD
:1003B00009E008C9121F08C0042AFAD203E011F8A4
:1003C000013B00F8013B521EF9D27047D2B201E066
:1003D00000F8012B491EFBD270470022F6E710B54A
:1003E00013460A4604461946FFF7F0FF204610BDA3
:1003F000421C10F8011B0029FBD1801A70470346EC
:1004000011F8012B00F8012B002AF9D1184670478A
:100410002DE9FE4F81EA030404F0004421F000417D
:1004200000944FF0000B23F0004350EA01045ED02B
:1004300052EA03045BD0C3F30A54C1F30A552C44B7
:10044000A4F2F3340194A0FB0254C1F3130141F46C
:100450008011C3F3130343F4801301FB024400FB38
:10046000034E840A970A44EA815447EA8357A4FB5F
:10047000076802958D0A05FB07854FEA932C04FB5C
:100480000C542705029D4FEA065847EA1637B5EB8C
:1004900008056EEB070C870E920E47EA811742EAB9
:1004A0008312A7FB0201B6EB0B0164EB00042B0DDA
:1004B00043EA0C335E1844EB1C50DA465146E7FB26
:1004C0000201C5F313044FEA0B3343EA14534FEA16
:1004D0000432019C43EA0603A4F10C040294009C3C
:1004E000CDE900B400F08AF803B0BDE8F08F002039
:1004F0000146F9E700F0004230F000400AD0C10D9B
:1005000001F56071C0F3160042EA0151C2084007CC
:100510001143704700200146704701F0004330B49A
:1005200021F0004150EA010206D00A0DA2F56072E6
:10053000C1F31301002A02DC30BC00207047440FD5
:1005400044EAC104C100E01830BC00EBC25000F026
:100550000FB8202A04DB203A00FA02F1002070478D
:100560009140C2F1200320FA03F3194390407047F1
:100570000029A8BF7047401C490008BF20F00100B7
:10058000704710B4B0FA80FC00FA0CF050EA010495
:1005900004BF10BC704749B1CCF1200421FA04F427
:1005A00011FA0CF118BF012121430843A3EB0C0100
:1005B000CB1D4FEA00614FEA102042BF002010BC63
:1005C000704700EBC35010440029A4BF10BC704713
:1005D000401C490008BF20F0010010BC704710B556
:1005E000141E73F1000408DA401C41F10001921856
:1005F0005B411A4301D120F0010010BD2DE9F04DFF
:1006000092469B4611B1B1FA81F202E0B0FA80F253
:1006100020329046FFF79DFF04460F4640EA0A004D
:1006200041EA0B0153465A46084313D0114653EA98
:10063000010019D0C8F140025046FFF7A0FE054660
:100640000E46504659464246FFF783FF084305D001
:10065000012004E020463946BDE8F08D0020054326
:1006600046EAE0762C4337430A986305E40AA0EB98
:1006700008000022FD0A44EA47540A3002D500204F
:100680000146E9E7010510196941DDE9084500194E
:100690006941BDE8F04DA2E7064C074D06E0E06871
:1006A00040F0010394E8070098471034AC42F6D3B9
:1006B000FFF7AAFD5C2700007C2700002DE9FE4320
:1006C0004FF48278404601F091FA4C4F00254C4C93
:1006D000012600B3404601F091FA94F82E0010B1C3
:1006E00094F82F10D1B18DF80050616801912189E3
:1006F000ADF80810E26832B1218B6183626021811C
:10070000E56010B102E0257400E03E6021686846B3
:10071000884784F82F5094F82E0060B34FF4807708
:10072000384601F063FA30B3384601F067FA628B5D
:1007300094F82D108A420AD9A2EB010080B260839E
:100740002289A2EB0000626802EB400005E007D1BD
:10075000E06828B184F82F60658301F035FA04E081
:100760008A4202D184F82F606583404601F046FA40
:100770002248001D06604FF48877384601F036FAAB
:1007800048B1384601F03AFA257402208DF800008D
:100790002168684688474FF48A77384601F026FA80
:1007A00028B1384601F02AFA2574BDE8FE834FF0DF
:1007B00000484FF48C7967691DE000BFB7FA87F0F5
:1007C00028FA00F109EB80058F43284601F00EFA64
:1007D00088B1284601F012FAA5F58C75E8088DF865
:1007E000040045F38000401C8DF800608DF8050082
:1007F000216868468847002FE0D1D6E700700040A6
:10080000CC00002000F04AB970B50E46144900EB48
:10081000400001EBC0051446E86A183520B10128F4
:100820000FD0022805D113E0284600F06BF9A04252
:1008300001D2002411E022463146284600F09AF900
:100840000BE0284600F05EF9A042F4D20446F2E73D
:100850003146284600F061F90446204670BD00008C
:10086000CC06002030B54FF080520023D2E94C1066
:10087000082906D1CC06C4F80C31C4F81031624CFA
:100880002360082955D1614B1B68614C23605F4B85
:100890001B1D1B68241D23605C4B08331B68241D33
:1008A00023605A4B0C331B68241D2360574B1033B5
:1008B0001B68241D2360554B14331B68241D2360C3
:1008C000524B18331B68524C203423604F4B1C335F
:1008D0001B68241D23604D4B20331B68241D23609F
:1008E0004A4B24331B68241D2360484B28331B6864
:1008F000241D2360454B2C331B68241D2360434B70
:1009000030331B68424C40342360404B34331B6807
:10091000241D23603D4B38331B68241D23603B4B53
:100920003C331B68241D2360384B40331B68241D57
:100930002360082904D1030002D1374C354B2360D2
:10094000082904D1030002D1344CFB232360082979
:1009500008D1030006D1324B92F858521C6865F357
:1009600003041C60082904D1030002D12D4C8B0123
:100970002360082906D12C480168C90702D06FF00E
:10098000010101602948016841F470010160BFF371
:100990004F8FBFF36F8FD2E94C104FF01022082910
:1009A00006D1032804D9D2F808021749203108607B
:1009B000D2F80002002803DBD2F8040200281FDA74
:1009C000012001F0DDFA1221C2F800121848036874
:1009D000002BFCD0C2F8041201680029FCD00020D2
:1009E00001F0CEFABFF34F8F10487C380168114AEE
:1009F00001F4E06111430160BFF34F8F00BFFDE7D9
:100A00000E490D48086030BD380500400404001050
:100A100020C50040488103008C56004018F5004076
:100A2000E40E0040409602400004004088ED00E0E3
:100A300000E401400400FA050090D003A00000206B
:100A40002DE9F047104E042700244FF4A0784FF40E
:100A5000803900BF08EB840509FA04F0715961B1CF
:100A6000D6F80413014208D02946304601F0E7F8D1
:100A70000648D0E9002128469047641CE4B2BC42F5
:100A8000E8D3BDE8F087000000800040FC000020B3
:100A900001480068004700002C00002010B5124CEF
:100AA00002202061606111A0A06104F17800E06182
:100AB0004FF4007020620020A06260620BA1A1646C
:100AC000E06204F51E71E1641021A065C4E9141010
:100AD000E06509A1E01DFFF792FC08A12046FFF7A1
:100AE0008EFC2020A07110BDCC0600205465726DD4
:100AF000696E616C00000000525454005345474732
:100B0000455200000269C1688A4203D88068401AD1
:100B1000104400E0501A401E70472DE9F047C468A9
:100B20001746894606464FF000083069A04201D9B1
:100B3000051B02E0B168201A0D1AB0686D1E001B7B
:100B4000A84200D80546BD4200D33D4670682A46FB
:100B500020444946FFF728FCB0687F1B2C44A8447A
:100B6000A944A04200D10024F460002FDDD140460A
:100B7000BDE8F0872DE9F04104468846D4E9020734
:100B8000C51BE168606816460844B54206D941466F
:100B9000FFF70AFCB819E060BDE8F0812A4641463B
:100BA000FFF702FC761B08EB050132466068FFF791
:100BB000FBFBE660F0E702E008C8121F08C1002A4C
:100BC000FAD170477047002001E001C1121F002ACE
:100BD000FBD1704772B600F0DDFE00BF00F028FDCB
:100BE0000028FBD111481249401AC408012000EB2B
:100BF000044010A100F036FE11480068C00700D084
:100C000000BE022000EB04400EA100F02BFEBFF35B
:100C10004F8F0B48E43801680E4A01F4E06111433C
:100C20000160BFF34F8F00BFFDE70000C427000045
:100C30008C270000466174616C206572726F7200CF
:100C4000F0ED00E053797374656D2072657365741F
:100C5000000000000400FA050EB500210091CDE966
:100C600001106A4644F20100FFF7B4FF0EBD00F028
:100C700003B800F009B8000072B602480168491CC8
:100C8000016070473400002003490868401E086076
:100C900000D162B670470000340000202DE9F04713
:100CA0000546861C91460F464FF0010A0020FFF7CB
:100CB000DEFF1B4C04F21C4860683860D4E9010177
:100CC000184F401A3968081A0EE00121404600F01A
:100CD0003FFA00F04FF90146404600F039FAD4E9F6
:100CE0000101401A3968081A401C8642EDD8B9F152
:100CF000000F03D0052065F3891002E0062065F39C
:100D00009F5061683A68114004EB8101C8606068D7
:100D1000304460600020FFF7ACFF5046BDE8F0872C
:100D2000AC0200204C00002070B50D4604460A2994
:100D300002D10D21FFF7F8FFA0682268411CA160D5
:100D40001554D4E90101814204D32046BDE8704026
:100D500000F07FBA70BD000004488168406881429D
:100D600001D101207047002070470000AC02002034
:100D700070B503C8184A091A1648184D801AC008D9
:100D8000032202EB0044B42908DD6868401C686057
:100D90006A68204612A100F069FD01E00020686049
:100DA00068680A280BD30A206860204613A100F067
:100DB00059FD0121102001F009FA012070BD2046E3
:100DC00015A100F04FFD0021102001F0FFF90020D7
:100DD00070BD0000C42700008C2700000000002028
:100DE0006D5F756E4F626A446574656374696F6E9A
:100DF000436F756E7465723A202575003D203D2065
:100E00003D203D204F424A454354204445544543EC
:100E100054454420210000003D203D203D203D2040
:100E20004E4F204F424A45435400000010B5002168
:100E3000024800F098F980F3100010BDC8060020A9
:100E40002DE9FC5F0E008346DDE90C47C6F100008A
:100E500098469246814600D40846012503E000BF2B
:100E600090FBFAF06D1C5045FADAA84500D94546CA
:100E700024B1002E01DB780700D5641EB80702D527
:100E8000B8F1000F0AD0F80708D13CB1A54205D24D
:100E900020215846641EFFF747FFF6E7002E02DACE
:100EA0004E462D2102E0780703D52B215846FFF747
:100EB0003BFF07F0030002280BD1B8F1000F08D167
:100EC0003CB1A54205D230215846641EFFF72CFFE5
:100ED000F6E7CDE90047434652463146584601F011
:100EE00007FBBDE8FC9F024600201268530713D59C
:100EF00002F00300012802D002280CD105E0C2F361
:100F000083100B68801C184404E00223086803EB7C
:100F10009252104408600120704710B5042000F080
:100F200091FABDE81040042000F098BA00284FF074
:100F3000040001D000F0AABA00F090BA10B50D205C
:100F400000F080FA0E2000F07DFA0F2000F07AFA0F
:100F5000102000F077FA0D2000F098FA0E2000F033
:100F600095FA0F2000F092FABDE81040102000F032
:100F70008DBA70472DE9FF410026244800F0E5F8BE
:100F80002248001F074600F0E0F8214C2149A068E4
:100F900000900D6800E000986946284004EB80004E
:100FA0000C30FFF7A0FF0028F5D101AA009901EA53
:100FB000050304EB8303491CDB6842F82030401C26
:100FC00000910228F2D3019800F0030001280BD011
:100FD000022810D10198032101EB90500099BDF82F
:100FE0000A6001EB900005E00198BDF80A60C0F3CB
:100FF000831008440090384600F0A4F808B1009827
:10100000A06004B03046BDE8F0810000C4060020B6
:10101000AC0200204C0000200021084600F08EFCAD
:1010200008B1FFF719FE00F0F5FA00F091FD08B1E4
:10103000FFF712FE01F05EF901F088F9FFF76DFF8E
:10104000FFF77CFF08480949401AC008032101EB5B
:10105000004007A100F006FC00F08EFD00F0E8FA69
:101060000028FBD1F8E70000C42700008C2700000F
:1010700053414144432048414C2073696D706C6575
:10108000206578616D706C6520737461727465643D
:101090002E0000002DE9F047C5881E1DB6FBF5F7B0
:1010A0008946B6FBF5F1044605FB176C40791668D6
:1010B0006843DDF820A0F718001F874200D9C61A40
:1010C000166001E02468491E0029FBD1A5EB0C073E
:1010D0008846B74216D818E004EB0C00001D09EB57
:1010E0000803BAF1000F3A4602D00146184600E064
:1010F0001946FFF759F92468F61B4FF0000CB84465
:10110000B54201D9374600E02F46002EE4D1BDE8B4
:10111000F087000030B5024651B100F023FC0021F9
:10112000074C08E034F821301568AB4202D1116059
:10113000002030BD491C8142F4D3052030BD0000A1
:1011400000000000002100F009B8012100F010B8F3
:1011500008B56A46FFF791F8009808BD08B56A46D9
:10116000FFF771F808BD08B56A46FFF753F808BDE8
:1011700008B56A46FFF75AF8009808BD08B56A46F0
:10118000FFF788F8009808BD70B50446002528468A
:10119000FFF76DFD21686268086890420ED9401E15
:1011A00008600178238AE26801FB0325227A21681E
:1011B000101AC0B20A79824200D208710020FFF7EB
:1011C00058FD284670BD70B505460C460020FFF757
:1011D0004EFDE868298A201AB0FBF1F12A681068F0
:1011E000431C13600170BDE870400020FFF741BD53
:1011F00010B530B1017A42680368891AC9B21A6021
:1012000006E00E2010BD03681A68541C1C601170A3
:10121000491EC9B2F7D2006800210171084610BD0D
:101220000448017809B18520704701210170002030
:1012300070470000280000200FB408B5039900296A
:1012400004D004AA00926A4600F00FF801B05DF8DD
:1012500014FB10B582680446002A05D0D4E90403C3
:10126000216898470020A06010BD2DE9FC479146F9
:101270000C00804676D014F8011B39B125290ED018
:101280004046FFF751FD20780028F4D198F80C0073
:10129000002867D04046BDE8FC47FFF7DABF0020D2
:1012A000012221782B291BD02D2902D0302908D1E9
:1012B00002E040F0010001E040F00200641C002A5E
:1012C000EFD100252A290ED02178A1F130020A2A77
:1012D00011D205EB850201EB4205641C303DF1E7BC
:1012E00040F00400EAE7D9F800100B1DC9F80030FF
:1012F0000968641C0D44217800232E290BD114F8B1
:10130000011FA1F130020A2A05D203EB830201EB8F
:101310004203303BF3E76C290DD068290BD06929D3
:1013200021D00BDC252918D0582931D063290ED0C3
:10133000642915D117E014F8011FECE7702969D072
:10134000732932D075291BD0782909D120E0D9F82A
:101350000000011DC9F8001001784046FFF7E4FCC9
:10136000641C90E76CE0D9F800100A1DC9F8002051
:101370000968CDE900500A224046FFF761FDEFE71A
:10138000D9F800100A1DC9F8002009680A2206E0F1
:10139000D9F800100A1DC9F8002009681022CDE90B
:1013A0000050404601F0A4F8DAE7D9F80010002711
:1013B0000A1DC9F800200E68C00705D112E040469A
:1013C000761C7F1CFFF7B0FC31780029F7D104E0D0
:1013D000202140466D1EFFF7A7FCBD42C0D9002D5D
:1013E000F6D1BDE74EB13046FFF702F8074604E0FC
:1013F000202140466D1EFFF797FCBD4206D9002D07
:10140000F6D103E04046761CFFF78EFC31780029C8
:10141000F8D1A5E7D9F80000011DC9F8001005684A
:1014200030214046FFF780FC78214046FFF77CFCE6
:1014300008200021CDE90001034610222946B0E72B
:10144000BDE8FC8708B50090684600F011F8009AE6
:10145000032100EB8200C0F8001708BD01B5684603
:1014600000F006F8009A01219140C0F80C1508BD63
:101470000168202902D24FF0A040704701F01F01FF
:1014800001600148704700000003005001B5684644
:10149000FFF7EEFF009A01219140C0F8081508BD42
:1014A00030B5154A01460020D2F8104423460AE020
:1014B000DB681D79854205D1401C0A28F6DB4FF018
:1014C000FF3030BD1B68002BF2D1431CF9D0CB6834
:1014D0001871D2F8103443B1DB68CC681B68236004
:1014E000D2F81024D268116030BDC2F81014C96857
:1014F00000220A6030BD0000AC0200207047FFF7F8
:1015000081B9704708B5034A00924023024A00F0AF
:1015100005F808BDB523000014010020F0B595B012
:101520001C4615460F4608461A9E00F0EBFA182195
:1015300009A8FEF752FF0E96CDE9095400230822B0
:1015400003A9384600F0F3FA05980690BDF810009C
:10155000ADF81C00BDF81200ADF81E0000208DF89B
:1015600021000398082600F00300012802D0022879
:1015700018D032E003983346850AC0F3C2008DF8D4
:10158000200003980FA9C0F38314A200384600F08E
:10159000CEFA09A8009006AB22460FA9284600F013
:1015A0000DFA1AE00398840DC0F3C2008DF82000F4
:1015B000082C01D2254600E0082533462A460FA90B
:1015C000384600F0B4FA2E44641B09AB06AA29463B
:1015D0000FA800F05BF9002CEAD1384600F098FA29
:1015E00015B0F0BD0A4A012902EBC00007D002295C
:1015F00007D0032907D0042907D000207047022014
:1016000070470420704700797047407970470000A8
:101610008C27000010B5FFF772FF04210348FFF785
:101620003FFF02490120C968487110BD7C270000B6
:101630002DE9F0478CB0FFF78FFB18B100200CB0FC
:10164000BDE8F0877D4C0020C4F81804BFF34F8F2D
:101650007B49A06802900D684FF00008284004EB19
:1016600080000BE0D4F8180470B9616802988142D8
:1016700001D8A160E2E7284004EB80000C3002A909
:10168000FFF731FC0028EDD1002003AA029901EAFE
:10169000050304EB8303491CDB6842F82030401C3F
:1016A00002910228F2D3039800F00300022802D02E
:1016B00001284DD0A7E003985022810D8946B2EB56
:1016C000905F00D850210E4666F39F50039008317A
:1016D0005C4800F0CEF9070078D000F013FA4346DA
:1016E000082203A9384600F02AFA029908F1080AEC
:1016F0002940681A8000001D864222D94F4D0C35C2
:1017000030B1C2B204EB8101301A90460C3104E0D2
:101710002946F2B2002590462846C6B253463846BE
:1017200000F00DFA0AEB080325B132462946384687
:1017300000F005FA029909F1030001EB9000029014
:101740003BE004EB81015346324638460C31EFE76B
:101750000398C0F38310062800D30620039960F392
:101760008911C1F38310801C03918100354800F07A
:1017700080F9070047D000F0C5F94346082203A9C5
:10178000384600F0DCF908F1080800260FE002985E
:10179000434600EA0501401C04EB8101029004224B
:1017A00038460C3100F0CBF908F10408761C039898
:1017B000C0F38310B042EAD847B1D4F81054D4F83B
:1017C000180478B1384600F0A3F931E01BE0E8686E
:1017D0004079012804D12A68284639461268904782
:1017E000E8680568002DF2D1384600F091F9002034
:1017F000FFF73DFAD4F8180408B90298A060002059
:10180000FFF737FA14E0D4F8104405E021682046C9
:1018100089688847E0680468002CF7D10A480B49BA
:10182000401AC008022101EB004009A100F01AF89B
:10183000FFF792FA80F0010001E70000AC020020FF
:101840004C000020CC270000C42700008C2700009B
:101850004261636B656E647320666C757368656462
:101860000000000000231A4600F0CCBD08B501239B
:1018700000926A4600F0C6FD08BD3EB5069C8DE8A4
:101880001C0003236A4600F0BDFD3EBD2DE9F04774
:101890000E4680461C469246082940D894F80C9083
:1018A000002020731946104600F0C2FC0025B54206
:1018B00006D218F805201BA12046FFF7BDFC03E067
:1018C0001AA12046FFF7B8FC6D1C082DEFD318A114
:1018D0002046FFF7B1FC0025B54212D218F805707A
:1018E0007E2F08D8FEF75CFD0068C05D10F03E0F4B
:1018F00001D03A4600E02E220EA12046FFF79CFCC4
:1019000003E00DA12046FFF797FC6D1C082DE3D3E3
:1019100001222146504600F06DFC84F80C90BDE891
:10192000F0870000202530327800000020202000C1
:101930007C0000002563000020000000064910B56F
:1019400000200870054800F0E1F8002803D10448A1
:1019500000F02CF9002010BDAC020020CC270000C4
:101960001826000002480349401AC00870470000CA
:10197000CC2700008C27000013B56846FFF7CAFB90
:1019800008B100201CBD0248009950F831001CBD70
:101990008C27000070B508480125D0F81044057068
:1019A00007E0E06845712168204649688847E0689B
:1019B0000468002CF5D170BDAC0200202DE9FF4772
:1019C00081460C9D00200C462F7B287398461646B6
:1019D0002946184600F02CFC072E42D2DFE806F01C
:1019E00004090F161F2A360049462846FFF724FC33
:1019F00037E0494628462268FFF71EFC31E0D4E96B
:101A0000002349462846FFF717FC2AE0A06800900B
:101A1000D4E9002349462846FFF70EFC21E0D4E92B
:101A20000201CDE90001D4E9002349462846FFF729
:101A300003FC16E004F1080007C88DE80700D4E9AC
:101A4000002349462846FFF7F7FB0AE004F10800A7
:101A50000FC88DE80F00D4E9002349462846FFF758
:101A6000EBFB00222946404600F0C4FB2F73BDE883
:101A7000FF872DE9F041058A80462D1F4819C01CBB
:101A8000B0FBF5F0C6B24046FFF77EFB041E19D04E
:101A90000020207101206071E58000272546761E18
:101AA000C4F800800BE04046FFF76EFB60B161793F
:101AB000491C6171286005467F1CC0F80080B74250
:101AC000F1D32046BDE8F081204600F002F8002066
:101AD000F8E72DE9F041457901466B1E002201E04F
:101AE0000968521C9A42FBD30F680146002605E0A4
:101AF00038460C68FFF767FB2146761CAE42F7D3E9
:101B0000BDE8F0810121001DFFF722BBFFF770BB8C
:101B100010B504460121001DFFF730FB10F0FF0F48
:101B200004D12046BDE81040FFF7D3BF10BD1CB55F
:101B300001920122009201AAFFF7ACFA1CBD1CB56C
:101B400001920022009201AAFFF7A4FA1CBD000036
:101B5000064910B500204870091D0860BFF35F8F6B
:101B60000349044800F054F8002010BD380000205C
:101B7000EC2500000801002010B50020FFF777F8E1
:101B8000F1EE100A20F09F00E1EE100ABFF35F8F24
:101B900005494020C1F880020020FFF76AF820BF05
:101BA00040BF20BF10BD000004E000E082680021BB
:101BB000916082681161826851618268D160826837
:101BC0005160806801607047024A1060101D01601A
:101BD000704700002C760040030103481844C0F809
:101BE0001425C0F810157047007000400249405895
:101BF000002800D00120704700700040034908B55C
:101C00000844002202600068009008BD0070004097
:101C1000016009684160AFF3008010B5D0E9002190
:101C20005368994201D1002104E0D1E90034A34274
:101C300002D01946816010BD08314160F0E708B557
:101C4000002242504058009008BD00002DE9F041AC
:101C5000254C064612200D46C4F808032348017C93
:101C6000022918D0027C01464FF4807891F82E109A
:101C7000012A12D00222C4F8042301270774466007
:101C800005810022C26021B3458390F82D103046B3
:101C9000FFF79AFF25E0122002E0C2682AB1022075
:101CA000C4F804031120BDE8F081C660058361B962
:101CB00047463846FFF79AFF0028FAD03846FFF724
:101CC0009DFF29463046FFF77FFF0220C4F804033A
:101CD00007E029463046FFF777FF4046FFF78EFFC3
:101CE00027600020DFE7000000700040CC000020EB
:101CF000204A10B5137C0BB1112010BD02EB40033C
:101D00001C7F1CB912F82D4F641C1470CA791A7705
:101D10000A7A5A770A784B78302402F0030204EAF0
:101D200003131A438B784FF4E06404EA03231A4345
:101D3000CB784FF4805404EA03331A430B794FF401
:101D4000E02404EA03431A434B794FF4801404EA75
:101D500003531A438B79240104EA0363064C1A43A4
:101D600004EB0013C3F818250A7AC979FFF734FF8A
:101D7000002010BDCC000020007000402DE9F04193
:101D80001F4C054694F82C0010B10820BDE8F081E6
:101D900044F8101B1B4928780860091D6878086002
:101DA000E878A077012727770020207060776060AF
:101DB000154EE0776FF00040C6F808034FF48270CC
:101DC000FFF71CFFB015FFF719FF4FF48A70FFF7FC
:101DD00015FFA8780D49400181F800048020C91F33
:101DE000C1F800010220C6F80403A07F10B1012051
:101DF000C6F804030348F03807600020C6E7000077
:101E0000CC000020F07500400070004007E000E0CA
:101E1000084900200A7C012A01D00820704791F867
:101E20002E30054A01210BB111607047024A121D84
:101E3000FAE70000CC000020007000402DE9F041DE
:101E400006460D464FF4803400681746AC404BB14F
:101E50004FF4A07101EB8501FFF7F1FE3068C0F887
:101E6000044301E0C0F80843306800EB8500C0F887
:101E70004075BDE8F0810000016801220A60007928
:101E8000034A00EB400002EB800002210172704720
:101E9000FC000020F0B40468049E40F20115D4F860
:101EA00000728D40AF43C4F800720468D4F8005249
:101EB0001D43C4F800523346F0BCFFF7BFBF00001B
:101EC0002DE9F04104460E4600792C4900EB400014
:101ED00001EB8007387A10B10820BDE8F0813A6044
:101EE000706800254FF4A078786006E008EB850163
:101EF0002068FFF7A4FE6D1CEDB26079A842F5D80A
:101F00002068F17840F3073000284FEA411104DBE4
:101F100000F1E02080F8001405E000F00F0000F16F
:101F2000E02080F8141D2068012140F307300028CC
:101F300009DB00F01F0201FA02F24009800000F103
:101F4000E020C0F8002120687278D0F8043562F3F0
:101F50000103C0F804352068B278D0F8083562F380
:101F60000103C0F8083520683278D0F8103562F3E4
:101F70000303C0F8103539720020AEE7FC000020E2
:101F800003490860034801680029FCD0704700003D
:101F900004E5014000E401402DE9F04107467549A0
:101FA00075480026081A0124C0082DED048B032172
:101FB00082B001EB004500BF37F9142028466FA11D
:101FC000FFF754FC37F91400641C06440A2CF3DBB9
:101FD00000EE106AF2EE020A694FB8EEC00A3978D4
:101FE00080EE201ABDEEC10A10EE100A07F11806A5
:101FF0009FED649B9FED658ADFF8948106F10804EC
:1020000061B33978012972D1706000EE100AB8EE20
:10201000C00A10EE100AFEF76DFA53EC192BFEF70A
:10202000F7F9FEF77AFA00EE100A84ED010A7268F9
:10203000284658A1FFF71AFC94ED010AB5EEC00A34
:10204000F1EE10FA61DD94ED010AD4ED010ABDEE66
:10205000C00AB8EEC00A30EEC00A60E0306000EEA0
:10206000100AB8EEC00A10EE100AFEF743FA53EC5D
:10207000192BFEF7CDF9FEF750FA00EE100A84EDA9
:10208000000A3268284643A1FFF7F0FB94ED000AEE
:10209000B5EEC00AF1EE10FA0ADD94ED000AD4EDB7
:1020A000000ABDEEC00AB8EEC00A30EEC00A09E070
:1020B00094ED000AD4ED000ABDEEC00AB8EEC00AE5
:1020C00030EE600A20EE080ABDEEC00A8DED000A6F
:1020D00094ED000AB5EEC00AF1EE10FA08D294EDC4
:1020E000000A10EE100A404502D22FA201E03CE0A7
:1020F0002CA294ED000A28462CA1BDEEC00A10EED9
:10210000103AFFF7BAFB01202EE094ED010AD4ED5E
:10211000010ABDEEC00AB8EEC00A30EE600A20EE39
:10212000080ABDEEC00A8DED000A94ED010AB5EE75
:10213000C00AF1EE10FA07D294ED010A10EE100A6F
:10214000404501D218A200E016A294ED010A2846EB
:1021500016A1BDEEC00A10EE103AFFF78EFB08483C
:102160001830FEF705FE0020387002B0BDEC048B7D
:10217000BDE8F081C42700008C2700002564000022
:1021800000000020061860800106683F0000C84279
:10219000000080BF6E4164634176657261676520AF
:1021A0003D202564000000002D0000006E416463A6
:1021B000566F6C7461676541766572616765203D35
:1021C00020257325642E25303264000070B5044646
:1021D0000D380D46032802D90720FEF73DFD2046A5
:1021E0001DB1BDE87040FFF739B9BDE87040FFF799
:1021F0004DB9000010B50C46017A052908D0407A87
:1022000038B1084808A102682046FFF715F800E039
:102210001AB106A12046FFF70FF82046BDE810408E
:10222000FFF717B87C000020257300000D0A00009E
:1022300038B5C3880D46044633B114A0009015A2EA
:1022400016A12846FEF7F8FF217A05291CD0607AEE
:1022500048B1A088FFF7C6F9164951F8202016A109
:102260002846FEF7E9FFA0880021FFF785FB03461B
:102270001049207A143951F8202001B02846BDE8D1
:1022800030400EA1FEF7D8BF38BD00001B5B306D9B
:10229000000000001B5B313B33316D0025734C6F38
:1022A00067732064726F7070656420282564292527
:1022B000730D0A007C000020257300003C25733E4E
:1022C0002025733A2000000010B50446007800284D
:1022D0000DD10A216068FFF7B9FC08B1FEF7BCFC1C
:1022E0006068FFF759FE02488168491C816010BD93
:1022F000000000200EB5124A07CA8DE807001048FA
:1023000010491438FFF73AFD08B1FEF7A5FC6946FD
:102310000020FFF7EDFC08B1FEF79EFC0A210A48F9
:10232000FFF794FC08B1FEF797FC07480A21143028
:10233000FFF78CFC002801D0FEF78EFC0EBD0000DC
:10234000B8250000C9220000A40000200EB5FEF749
:1023500067FF08B1FEF780FC1449154AD1E9030173
:10236000CDE9010103208DF80600104801A9001DE8
:10237000FFF7A6FD08B1FEF76FFC0C48001D0068D2
:10238000D0F810050021C2B24FF4C860FDF7F7FF86
:10239000024601200346009004480021001DFFF77B
:1023A00079FD0248001DFFF767FD0EBDA425000062
:1023B0009D2400002DE9F0411400884618D0002526
:1023C0000E4F032608EB050122460020FEF71CFAFB
:1023D0000544241A40B93878002809D008494FF438
:1023E0007A408847761E05D001203870002CE9D14C
:1023F000BDE8F08100203870FAE7000040000020BE
:10240000112600002DE9F84F0746224891468846DC
:1024100005681E46012269461846FEF73FFCDFF8B4
:1024200078A060B3009800210446801C0AE000BF39
:1024300000EA050259F821C00AEB8202401C491C3F
:10244000C2F80CC0B142F3D34FEA1749FEF7EEFCD5
:10245000611C29400AEB810149EA00422C40CA6014
:102460000AEB8401C86867F3C50066F3891068F356
:102470009F2020F00300401C20F00400C8609AF860
:10248000000001E0FFF7D4F80028FBD1FEF771FD52
:10249000BDE8F88F4C000020AC02002010B5134CB2
:1024A0004FF47A72002320696169FDF737FF1A4300
:1024B00014D1207818B12078012806D00CE0002132
:1024C0000D20FFF783FE002004E001210D20FFF71F
:1024D0007DFE0120FEF72AFDFFF79AFC2069616965
:1024E000643041F100012061616110BD00000020F5
:1024F0002DE9F05F8346DDE90A4A994690460D468C
:102500000846012703E000BFB0FBF8F07F1C404500
:10251000FAD2B94500D94F465FEACA7012D18CB1E0
:102520005FEA8A7002D5B9F1000F01D0202607E0DA
:10253000302605E031465846641EFEF7F5FB0CB127
:10254000A742F7D35FF00106B9F1010F02D9A9F153
:10255000010903E0B5FBF6F0404502D306FB08F69F
:10256000F2E7DFF83C9000BFB5FBF6F000FB165534
:1025700019F800105846FEF7D7FBB6FBF8F6002E08
:10258000F2D15FEACA7009D0002C07D0A74205D269
:1025900020215846641EFEF7C7FBF5E7BDE8F09F13
:1025A000C12500000100060000800040000400007A
:1025B0000000000600000000000001000200000111
:1025C00000303132333435363738394142434445AF
:1025D00046000000000000000000000000000000B5
:1025E000000000000000000000000000D4250000F2
:1025F000EC25000004000000051500000315000094
:10260000FD140000000000000000000000000000B9
:102610000338FDD870470000140200207F0000003E
:102620009402002000404040404040404040414132
:102630004141414040404040404040404040404097
:102640004040404040050202020202020202020231
:10265000020202020220202020202020202020022E
:1026600002020202020290909090909010101010BE
:10267000101010101010101010101010101010105A
:1026800002020202020288888888888808080808EE
:1026900008080808080808080808080808080808BA
:1026A0000202020240000000252600007761726EDF
:1026B000696E670064656275670000001B5B313BF3
:1026C00033306D001B5B306D000000001B5B313B45
:1026D00033316D001B5B313B33326D001B5B313B93
:1026E00033336D001B5B313B33346D001B5B313B7F
:1026F00033356D001B5B313B33366D001B5B313B6B
:1027000033376D00696E666F000000006572726F8E
:102710007200000050504900505253005341414450
:102720004300000054494D455200000055415254A9
:102730000000000055415254450000007077725F60
:102740006D676D74000000007274745F6C6F675F7A
:102750006261636B656E640061707000E027000069
:1027600000000020A4000000B60B00008428000038
:10277000A4000020B4280000C60B0000F8250000CB
:10278000000000004827000044000020142700003B
:102790000000000018270000000000001C270000B7
:1027A0000000000024270000000000002C2700008B
:1027B0000000000034270000000000003C2700005B
:1027C000000000005827000000000303580000200C
:1027D0005000002058000020540100201800000084
:1027E00000000000000000000000000000000000E9
:1027F00000000000000000000000000000000000D9
:1028000000000000000000000000000000000000C8
:1028100000000000000000000000000000000000B8
:102820000000000000000000FF000000FF000000AA
:102830000000000000000000000000000000000098
:102840000000000000000000000000000C27000055
:10285000AC26000004270000B4260000C4260000B7
:10286000BC260000CC260000D4260000DC26000098
:10287000E4260000EC260000F4260000FC26000000
:042880000090D003F1
:0400000500000201F4
:00000001FF
